{
    "_format": "hh-sol-artifact-1",
    "contractName": "EpicGame",
    "sourceName": "contracts/EpicGame.sol",
    "abi": [
        {
            "inputs": [
                {
                    "internalType": "string[]",
                    "name": "characterNames",
                    "type": "string[]"
                },
                {
                    "internalType": "string[]",
                    "name": "characterImgURIs",
                    "type": "string[]"
                },
                {
                    "internalType": "uint256[]",
                    "name": "characterHp",
                    "type": "uint256[]"
                },
                {
                    "internalType": "uint256[]",
                    "name": "charAttackDmg",
                    "type": "uint256[]"
                },
                {
                    "internalType": "uint256[]",
                    "name": "charDefense",
                    "type": "uint256[]"
                },
                {
                    "internalType": "string",
                    "name": "villanName",
                    "type": "string"
                },
                {
                    "internalType": "string",
                    "name": "villanImgURI",
                    "type": "string"
                },
                {
                    "internalType": "uint256",
                    "name": "villanHp",
                    "type": "uint256"
                },
                {
                    "internalType": "uint256",
                    "name": "villanAttackDmg",
                    "type": "uint256"
                },
                {
                    "internalType": "uint256",
                    "name": "villanDefense",
                    "type": "uint256"
                }
            ],
            "stateMutability": "nonpayable",
            "type": "constructor"
        },
        {
            "anonymous": false,
            "inputs": [
                {
                    "indexed": true,
                    "internalType": "address",
                    "name": "owner",
                    "type": "address"
                },
                {
                    "indexed": true,
                    "internalType": "address",
                    "name": "approved",
                    "type": "address"
                },
                {
                    "indexed": true,
                    "internalType": "uint256",
                    "name": "tokenId",
                    "type": "uint256"
                }
            ],
            "name": "Approval",
            "type": "event"
        },
        {
            "anonymous": false,
            "inputs": [
                {
                    "indexed": true,
                    "internalType": "address",
                    "name": "owner",
                    "type": "address"
                },
                {
                    "indexed": true,
                    "internalType": "address",
                    "name": "operator",
                    "type": "address"
                },
                {
                    "indexed": false,
                    "internalType": "bool",
                    "name": "approved",
                    "type": "bool"
                }
            ],
            "name": "ApprovalForAll",
            "type": "event"
        },
        {
            "anonymous": false,
            "inputs": [
                {
                    "indexed": false,
                    "internalType": "uint256",
                    "name": "newVillanHp",
                    "type": "uint256"
                },
                {
                    "indexed": false,
                    "internalType": "uint256",
                    "name": "newPlayerHp",
                    "type": "uint256"
                }
            ],
            "name": "AttackCompleted",
            "type": "event"
        },
        {
            "anonymous": false,
            "inputs": [
                {
                    "indexed": false,
                    "internalType": "address",
                    "name": "sender",
                    "type": "address"
                },
                {
                    "indexed": false,
                    "internalType": "uint256",
                    "name": "tokenId",
                    "type": "uint256"
                },
                {
                    "indexed": false,
                    "internalType": "uint256",
                    "name": "characterIndex",
                    "type": "uint256"
                }
            ],
            "name": "CharacterMinted",
            "type": "event"
        },
        {
            "anonymous": false,
            "inputs": [
                {
                    "indexed": true,
                    "internalType": "address",
                    "name": "from",
                    "type": "address"
                },
                {
                    "indexed": true,
                    "internalType": "address",
                    "name": "to",
                    "type": "address"
                },
                {
                    "indexed": true,
                    "internalType": "uint256",
                    "name": "tokenId",
                    "type": "uint256"
                }
            ],
            "name": "Transfer",
            "type": "event"
        },
        {
            "inputs": [
                {
                    "internalType": "address",
                    "name": "to",
                    "type": "address"
                },
                {
                    "internalType": "uint256",
                    "name": "tokenId",
                    "type": "uint256"
                }
            ],
            "name": "approve",
            "outputs": [],
            "stateMutability": "nonpayable",
            "type": "function"
        },
        {
            "inputs": [],
            "name": "attackRegular",
            "outputs": [],
            "stateMutability": "nonpayable",
            "type": "function"
        },
        {
            "inputs": [
                {
                    "internalType": "address",
                    "name": "owner",
                    "type": "address"
                }
            ],
            "name": "balanceOf",
            "outputs": [
                {
                    "internalType": "uint256",
                    "name": "",
                    "type": "uint256"
                }
            ],
            "stateMutability": "view",
            "type": "function"
        },
        {
            "inputs": [],
            "name": "checkIfUserHasToken",
            "outputs": [
                {
                    "components": [
                        {
                            "internalType": "uint256",
                            "name": "characterIndex",
                            "type": "uint256"
                        },
                        {
                            "internalType": "string",
                            "name": "name",
                            "type": "string"
                        },
                        {
                            "internalType": "string",
                            "name": "imgURI",
                            "type": "string"
                        },
                        {
                            "internalType": "uint256",
                            "name": "hp",
                            "type": "uint256"
                        },
                        {
                            "internalType": "uint256",
                            "name": "maxHp",
                            "type": "uint256"
                        },
                        {
                            "internalType": "uint256",
                            "name": "attackDamage",
                            "type": "uint256"
                        },
                        {
                            "internalType": "uint256",
                            "name": "defense",
                            "type": "uint256"
                        }
                    ],
                    "internalType": "struct EpicGame.CharAttributes",
                    "name": "",
                    "type": "tuple"
                }
            ],
            "stateMutability": "view",
            "type": "function"
        },
        {
            "inputs": [],
            "name": "getAllDefaultChars",
            "outputs": [
                {
                    "components": [
                        {
                            "internalType": "uint256",
                            "name": "characterIndex",
                            "type": "uint256"
                        },
                        {
                            "internalType": "string",
                            "name": "name",
                            "type": "string"
                        },
                        {
                            "internalType": "string",
                            "name": "imgURI",
                            "type": "string"
                        },
                        {
                            "internalType": "uint256",
                            "name": "hp",
                            "type": "uint256"
                        },
                        {
                            "internalType": "uint256",
                            "name": "maxHp",
                            "type": "uint256"
                        },
                        {
                            "internalType": "uint256",
                            "name": "attackDamage",
                            "type": "uint256"
                        },
                        {
                            "internalType": "uint256",
                            "name": "defense",
                            "type": "uint256"
                        }
                    ],
                    "internalType": "struct EpicGame.CharAttributes[]",
                    "name": "",
                    "type": "tuple[]"
                }
            ],
            "stateMutability": "view",
            "type": "function"
        },
        {
            "inputs": [
                {
                    "internalType": "uint256",
                    "name": "tokenId",
                    "type": "uint256"
                }
            ],
            "name": "getApproved",
            "outputs": [
                {
                    "internalType": "address",
                    "name": "",
                    "type": "address"
                }
            ],
            "stateMutability": "view",
            "type": "function"
        },
        {
            "inputs": [],
            "name": "getVillan",
            "outputs": [
                {
                    "components": [
                        {
                            "internalType": "string",
                            "name": "name",
                            "type": "string"
                        },
                        {
                            "internalType": "string",
                            "name": "imgURI",
                            "type": "string"
                        },
                        {
                            "internalType": "uint256",
                            "name": "hp",
                            "type": "uint256"
                        },
                        {
                            "internalType": "uint256",
                            "name": "maxHp",
                            "type": "uint256"
                        },
                        {
                            "internalType": "uint256",
                            "name": "attackDamage",
                            "type": "uint256"
                        },
                        {
                            "internalType": "uint256",
                            "name": "vDefense",
                            "type": "uint256"
                        }
                    ],
                    "internalType": "struct EpicGame.Villan",
                    "name": "",
                    "type": "tuple"
                }
            ],
            "stateMutability": "view",
            "type": "function"
        },
        {
            "inputs": [
                {
                    "internalType": "address",
                    "name": "owner",
                    "type": "address"
                },
                {
                    "internalType": "address",
                    "name": "operator",
                    "type": "address"
                }
            ],
            "name": "isApprovedForAll",
            "outputs": [
                {
                    "internalType": "bool",
                    "name": "",
                    "type": "bool"
                }
            ],
            "stateMutability": "view",
            "type": "function"
        },
        {
            "inputs": [
                {
                    "internalType": "uint256",
                    "name": "_characterIndex",
                    "type": "uint256"
                }
            ],
            "name": "mintCharacterNFT",
            "outputs": [],
            "stateMutability": "nonpayable",
            "type": "function"
        },
        {
            "inputs": [],
            "name": "name",
            "outputs": [
                {
                    "internalType": "string",
                    "name": "",
                    "type": "string"
                }
            ],
            "stateMutability": "view",
            "type": "function"
        },
        {
            "inputs": [
                {
                    "internalType": "uint256",
                    "name": "tokenId",
                    "type": "uint256"
                }
            ],
            "name": "ownerOf",
            "outputs": [
                {
                    "internalType": "address",
                    "name": "",
                    "type": "address"
                }
            ],
            "stateMutability": "view",
            "type": "function"
        },
        {
            "inputs": [
                {
                    "internalType": "address",
                    "name": "from",
                    "type": "address"
                },
                {
                    "internalType": "address",
                    "name": "to",
                    "type": "address"
                },
                {
                    "internalType": "uint256",
                    "name": "tokenId",
                    "type": "uint256"
                }
            ],
            "name": "safeTransferFrom",
            "outputs": [],
            "stateMutability": "nonpayable",
            "type": "function"
        },
        {
            "inputs": [
                {
                    "internalType": "address",
                    "name": "from",
                    "type": "address"
                },
                {
                    "internalType": "address",
                    "name": "to",
                    "type": "address"
                },
                {
                    "internalType": "uint256",
                    "name": "tokenId",
                    "type": "uint256"
                },
                {
                    "internalType": "bytes",
                    "name": "_data",
                    "type": "bytes"
                }
            ],
            "name": "safeTransferFrom",
            "outputs": [],
            "stateMutability": "nonpayable",
            "type": "function"
        },
        {
            "inputs": [
                {
                    "internalType": "address",
                    "name": "operator",
                    "type": "address"
                },
                {
                    "internalType": "bool",
                    "name": "approved",
                    "type": "bool"
                }
            ],
            "name": "setApprovalForAll",
            "outputs": [],
            "stateMutability": "nonpayable",
            "type": "function"
        },
        {
            "inputs": [
                {
                    "internalType": "bytes4",
                    "name": "interfaceId",
                    "type": "bytes4"
                }
            ],
            "name": "supportsInterface",
            "outputs": [
                {
                    "internalType": "bool",
                    "name": "",
                    "type": "bool"
                }
            ],
            "stateMutability": "view",
            "type": "function"
        },
        {
            "inputs": [],
            "name": "symbol",
            "outputs": [
                {
                    "internalType": "string",
                    "name": "",
                    "type": "string"
                }
            ],
            "stateMutability": "view",
            "type": "function"
        },
        {
            "inputs": [
                {
                    "internalType": "address",
                    "name": "",
                    "type": "address"
                }
            ],
            "name": "tokenHolder",
            "outputs": [
                {
                    "internalType": "uint256",
                    "name": "",
                    "type": "uint256"
                }
            ],
            "stateMutability": "view",
            "type": "function"
        },
        {
            "inputs": [
                {
                    "internalType": "uint256",
                    "name": "",
                    "type": "uint256"
                }
            ],
            "name": "tokenHolderAttributes",
            "outputs": [
                {
                    "internalType": "uint256",
                    "name": "characterIndex",
                    "type": "uint256"
                },
                {
                    "internalType": "string",
                    "name": "name",
                    "type": "string"
                },
                {
                    "internalType": "string",
                    "name": "imgURI",
                    "type": "string"
                },
                {
                    "internalType": "uint256",
                    "name": "hp",
                    "type": "uint256"
                },
                {
                    "internalType": "uint256",
                    "name": "maxHp",
                    "type": "uint256"
                },
                {
                    "internalType": "uint256",
                    "name": "attackDamage",
                    "type": "uint256"
                },
                {
                    "internalType": "uint256",
                    "name": "defense",
                    "type": "uint256"
                }
            ],
            "stateMutability": "view",
            "type": "function"
        },
        {
            "inputs": [
                {
                    "internalType": "uint256",
                    "name": "_tokenId",
                    "type": "uint256"
                }
            ],
            "name": "tokenURI",
            "outputs": [
                {
                    "internalType": "string",
                    "name": "",
                    "type": "string"
                }
            ],
            "stateMutability": "view",
            "type": "function"
        },
        {
            "inputs": [
                {
                    "internalType": "address",
                    "name": "from",
                    "type": "address"
                },
                {
                    "internalType": "address",
                    "name": "to",
                    "type": "address"
                },
                {
                    "internalType": "uint256",
                    "name": "tokenId",
                    "type": "uint256"
                }
            ],
            "name": "transferFrom",
            "outputs": [],
            "stateMutability": "nonpayable",
            "type": "function"
        },
        {
            "inputs": [],
            "name": "villan",
            "outputs": [
                {
                    "internalType": "string",
                    "name": "name",
                    "type": "string"
                },
                {
                    "internalType": "string",
                    "name": "imgURI",
                    "type": "string"
                },
                {
                    "internalType": "uint256",
                    "name": "hp",
                    "type": "uint256"
                },
                {
                    "internalType": "uint256",
                    "name": "maxHp",
                    "type": "uint256"
                },
                {
                    "internalType": "uint256",
                    "name": "attackDamage",
                    "type": "uint256"
                },
                {
                    "internalType": "uint256",
                    "name": "vDefense",
                    "type": "uint256"
                }
            ],
            "stateMutability": "view",
            "type": "function"
        }
    ],
    "bytecode": "0x60806040523480156200001157600080fd5b50604051620058c7380380620058c7833981810160405281019062000037919062000ac7565b6040518060400160405280600581526020017f4865726f730000000000000000000000000000000000000000000000000000008152506040518060400160405280600481526020017f4845524f000000000000000000000000000000000000000000000000000000008152508160009080519060200190620000bb9291906200085a565b508060019080519060200190620000d49291906200085a565b5050506040518060c001604052808681526020018581526020018481526020018481526020018381526020018281525060096000820151816000019080519060200190620001249291906200085a565b506020820151816001019080519060200190620001439291906200085a565b5060408201518160020155606082015181600301556080820151816004015560a08201518160050155905050620002d06040518060600160405280602e815260200162005876602e9139600960000180546200019f9062000e98565b80601f0160208091040260200160405190810160405280929190818152602001828054620001cd9062000e98565b80156200021e5780601f10620001f2576101008083540402835291602001916200021e565b820191906000526020600020905b8154815290600101906020018083116200020057829003601f168201915b5050505050600960020154600960010180546200023b9062000e98565b80601f0160208091040260200160405190810160405280929190818152602001828054620002699062000e98565b8015620002ba5780601f106200028e57610100808354040283529160200191620002ba565b820191906000526020600020905b8154815290600101906020018083116200029c57829003601f168201915b50505050506200076f60201b62001c9f1760201c565b60005b8a51811015620007475760076040518060e001604052808381526020018d84815181106200032a577f4e487b7100000000000000000000000000000000000000000000000000000000600052603260045260246000fd5b602002602001015181526020018c848151811062000371577f4e487b7100000000000000000000000000000000000000000000000000000000600052603260045260246000fd5b602002602001015181526020018b8481518110620003b8577f4e487b7100000000000000000000000000000000000000000000000000000000600052603260045260246000fd5b602002602001015181526020018b8481518110620003ff577f4e487b7100000000000000000000000000000000000000000000000000000000600052603260045260246000fd5b602002602001015181526020018a848151811062000446577f4e487b7100000000000000000000000000000000000000000000000000000000600052603260045260246000fd5b602002602001015181526020018984815181106200048d577f4e487b7100000000000000000000000000000000000000000000000000000000600052603260045260246000fd5b60200260200101518152509080600181540180825580915050600190039060005260206000209060070201600090919091909150600082015181600001556020820151816001019080519060200190620004e99291906200085a565b506040820151816002019080519060200190620005089291906200085a565b50606082015181600301556080820151816004015560a0820151816005015560c08201518160060155505060006007828154811062000570577f4e487b7100000000000000000000000000000000000000000000000000000000600052603260045260246000fd5b90600052602060002090600702016040518060e001604052908160008201548152602001600182018054620005a59062000e98565b80601f0160208091040260200160405190810160405280929190818152602001828054620005d39062000e98565b8015620006245780601f10620005f85761010080835404028352916020019162000624565b820191906000526020600020905b8154815290600101906020018083116200060657829003601f168201915b505050505081526020016002820180546200063f9062000e98565b80601f01602080910402602001604051908101604052809291908181526020018280546200066d9062000e98565b8015620006be5780601f106200069257610100808354040283529160200191620006be565b820191906000526020600020905b815481529060010190602001808311620006a057829003601f168201915b5050505050815260200160038201548152602001600482015481526020016005820154815260200160068201548152505090506200072f604051806060016040528060238152602001620058a4602391398260200151836060015184604001516200076f60201b62001c9f1760201c565b506001816200073f919062000dfb565b9050620002d3565b506200075f60066200081b60201b62001d411760201c565b5050505050505050505062000f86565b62000815848484846040516024016200078c949392919062000cb8565b6040516020818303038152906040527f8d142cdd000000000000000000000000000000000000000000000000000000007bffffffffffffffffffffffffffffffffffffffffffffffffffffffff19166020820180517bffffffffffffffffffffffffffffffffffffffffffffffffffffffff83818316178352505050506200083160201b60201c565b50505050565b6001816000016000828254019250508190555050565b60008151905060006a636f6e736f6c652e6c6f679050602083016000808483855afa5050505050565b828054620008689062000e98565b90600052602060002090601f0160209004810192826200088c5760008555620008d8565b82601f10620008a757805160ff1916838001178555620008d8565b82800160010185558215620008d8579182015b82811115620008d7578251825591602001919060010190620008ba565b5b509050620008e79190620008eb565b5090565b5b8082111562000906576000816000905550600101620008ec565b5090565b6000620009216200091b8462000d4e565b62000d1a565b9050808382526020820190508260005b858110156200096557815185016200094a888262000a83565b84526020840193506020830192505060018101905062000931565b5050509392505050565b600062000986620009808462000d7d565b62000d1a565b90508083825260208201905082856020860282011115620009a657600080fd5b60005b85811015620009da5781620009bf888262000ab0565b845260208401935060208301925050600181019050620009a9565b5050509392505050565b6000620009fb620009f58462000dac565b62000d1a565b90508281526020810184848401111562000a1457600080fd5b62000a2184828562000e62565b509392505050565b600082601f83011262000a3b57600080fd5b815162000a4d8482602086016200090a565b91505092915050565b600082601f83011262000a6857600080fd5b815162000a7a8482602086016200096f565b91505092915050565b600082601f83011262000a9557600080fd5b815162000aa7848260208601620009e4565b91505092915050565b60008151905062000ac18162000f6c565b92915050565b6000806000806000806000806000806101408b8d03121562000ae857600080fd5b60008b015167ffffffffffffffff81111562000b0357600080fd5b62000b118d828e0162000a29565b9a505060208b015167ffffffffffffffff81111562000b2f57600080fd5b62000b3d8d828e0162000a29565b99505060408b015167ffffffffffffffff81111562000b5b57600080fd5b62000b698d828e0162000a56565b98505060608b015167ffffffffffffffff81111562000b8757600080fd5b62000b958d828e0162000a56565b97505060808b015167ffffffffffffffff81111562000bb357600080fd5b62000bc18d828e0162000a56565b96505060a08b015167ffffffffffffffff81111562000bdf57600080fd5b62000bed8d828e0162000a83565b95505060c08b015167ffffffffffffffff81111562000c0b57600080fd5b62000c198d828e0162000a83565b94505060e062000c2c8d828e0162000ab0565b93505061010062000c408d828e0162000ab0565b92505061012062000c548d828e0162000ab0565b9150509295989b9194979a5092959850565b600062000c738262000ddf565b62000c7f818562000dea565b935062000c9181856020860162000e62565b62000c9c8162000f5b565b840191505092915050565b62000cb28162000e58565b82525050565b6000608082019050818103600083015262000cd4818762000c66565b9050818103602083015262000cea818662000c66565b905062000cfb604083018562000ca7565b818103606083015262000d0f818462000c66565b905095945050505050565b6000604051905081810181811067ffffffffffffffff8211171562000d445762000d4362000f2c565b5b8060405250919050565b600067ffffffffffffffff82111562000d6c5762000d6b62000f2c565b5b602082029050602081019050919050565b600067ffffffffffffffff82111562000d9b5762000d9a62000f2c565b5b602082029050602081019050919050565b600067ffffffffffffffff82111562000dca5762000dc962000f2c565b5b601f19601f8301169050602081019050919050565b600081519050919050565b600082825260208201905092915050565b600062000e088262000e58565b915062000e158362000e58565b9250827fffffffffffffffffffffffffffffffffffffffffffffffffffffffffffffffff0382111562000e4d5762000e4c62000ece565b5b828201905092915050565b6000819050919050565b60005b8381101562000e8257808201518184015260208101905062000e65565b8381111562000e92576000848401525b50505050565b6000600282049050600182168062000eb157607f821691505b6020821081141562000ec85762000ec762000efd565b5b50919050565b7f4e487b7100000000000000000000000000000000000000000000000000000000600052601160045260246000fd5b7f4e487b7100000000000000000000000000000000000000000000000000000000600052602260045260246000fd5b7f4e487b7100000000000000000000000000000000000000000000000000000000600052604160045260246000fd5b6000601f19601f8301169050919050565b62000f778162000e58565b811462000f8357600080fd5b50565b6148e08062000f966000396000f3fe608060405234801561001057600080fd5b50600436106101375760003560e01c8063829a53b3116100b8578063c9a301f31161007c578063c9a301f314610357578063d85aeb3d14610375578063e985e9c514610393578063eb3ae885146103c3578063f8b81ef7146103e1578063fc7ebc3a146103fd57610137565b8063829a53b31461029b57806395d89b41146102d1578063a22cb465146102ef578063b88d4fde1461030b578063c87b56dd1461032757610137565b806342842e0e116100ff57806342842e0e146101f25780634688ccf21461020e5780636352211e1461023157806370a0823114610261578063716dd8ab1461029157610137565b806301ffc9a71461013c57806306fdde031461016c578063081812fc1461018a578063095ea7b3146101ba57806323b872dd146101d6575b600080fd5b61015660048036038101906101519190613039565b61042d565b6040516101639190613ee6565b60405180910390f35b61017461050f565b6040516101819190613f01565b60405180910390f35b6101a4600480360381019061019f919061308b565b6105a1565b6040516101b19190613e26565b60405180910390f35b6101d460048036038101906101cf9190612ffd565b610626565b005b6101f060048036038101906101eb9190612ef7565b61073e565b005b61020c60048036038101906102079190612ef7565b61079e565b005b6102166107be565b60405161022896959493929190613f7d565b60405180910390f35b61024b6004803603810190610246919061308b565b6108f8565b6040516102589190613e26565b60405180910390f35b61027b60048036038101906102769190612e92565b6109aa565b604051610288919061427e565b60405180910390f35b610299610a62565b005b6102b560048036038101906102b0919061308b565b610ca7565b6040516102c89796959493929190614299565b60405180910390f35b6102d9610df9565b6040516102e69190613f01565b60405180910390f35b61030960048036038101906103049190612fc1565b610e8b565b005b61032560048036038101906103209190612f46565b61100c565b005b610341600480360381019061033c919061308b565b61106e565b60405161034e9190613f01565b60405180910390f35b61035f6112a7565b60405161036c919061425c565b60405180910390f35b61037d61140d565b60405161038a9190613ec4565b60405180910390f35b6103ad60048036038101906103a89190612ebb565b6115c2565b6040516103ba9190613ee6565b60405180910390f35b6103cb611656565b6040516103d8919061423a565b60405180910390f35b6103fb60048036038101906103f6919061308b565b611838565b005b61041760048036038101906104129190612e92565b611c87565b604051610424919061427e565b60405180910390f35b60007f80ac58cd000000000000000000000000000000000000000000000000000000007bffffffffffffffffffffffffffffffffffffffffffffffffffffffff1916827bffffffffffffffffffffffffffffffffffffffffffffffffffffffff191614806104f857507f5b5e139f000000000000000000000000000000000000000000000000000000007bffffffffffffffffffffffffffffffffffffffffffffffffffffffff1916827bffffffffffffffffffffffffffffffffffffffffffffffffffffffff1916145b80610508575061050782611d57565b5b9050919050565b60606000805461051e9061463d565b80601f016020809104026020016040519081016040528092919081815260200182805461054a9061463d565b80156105975780601f1061056c57610100808354040283529160200191610597565b820191906000526020600020905b81548152906001019060200180831161057a57829003601f168201915b5050505050905090565b60006105ac82611dc1565b6105eb576040517f08c379a00000000000000000000000000000000000000000000000000000000081526004016105e29061417a565b60405180910390fd5b6004600083815260200190815260200160002060009054906101000a900473ffffffffffffffffffffffffffffffffffffffff169050919050565b6000610631826108f8565b90508073ffffffffffffffffffffffffffffffffffffffff168373ffffffffffffffffffffffffffffffffffffffff1614156106a2576040517f08c379a0000000000000000000000000000000000000000000000000000000008152600401610699906141da565b60405180910390fd5b8073ffffffffffffffffffffffffffffffffffffffff166106c1611e2d565b73ffffffffffffffffffffffffffffffffffffffff1614806106f057506106ef816106ea611e2d565b6115c2565b5b61072f576040517f08c379a0000000000000000000000000000000000000000000000000000000008152600401610726906140fa565b60405180910390fd5b6107398383611e35565b505050565b61074f610749611e2d565b82611eee565b61078e576040517f08c379a0000000000000000000000000000000000000000000000000000000008152600401610785906141fa565b60405180910390fd5b610799838383611fcc565b505050565b6107b98383836040518060200160405280600081525061100c565b505050565b60098060000180546107cf9061463d565b80601f01602080910402602001604051908101604052809291908181526020018280546107fb9061463d565b80156108485780601f1061081d57610100808354040283529160200191610848565b820191906000526020600020905b81548152906001019060200180831161082b57829003601f168201915b50505050509080600101805461085d9061463d565b80601f01602080910402602001604051908101604052809291908181526020018280546108899061463d565b80156108d65780601f106108ab576101008083540402835291602001916108d6565b820191906000526020600020905b8154815290600101906020018083116108b957829003601f168201915b5050505050908060020154908060030154908060040154908060050154905086565b6000806002600084815260200190815260200160002060009054906101000a900473ffffffffffffffffffffffffffffffffffffffff169050600073ffffffffffffffffffffffffffffffffffffffff168173ffffffffffffffffffffffffffffffffffffffff1614156109a1576040517f08c379a00000000000000000000000000000000000000000000000000000000081526004016109989061413a565b60405180910390fd5b80915050919050565b60008073ffffffffffffffffffffffffffffffffffffffff168273ffffffffffffffffffffffffffffffffffffffff161415610a1b576040517f08c379a0000000000000000000000000000000000000000000000000000000008152600401610a129061411a565b60405180910390fd5b600360008373ffffffffffffffffffffffffffffffffffffffff1673ffffffffffffffffffffffffffffffffffffffff168152602001908152602001600020549050919050565b6000600f60003373ffffffffffffffffffffffffffffffffffffffff1673ffffffffffffffffffffffffffffffffffffffff16815260200190815260200160002054905060006008600083815260200190815260200160002090506000816003015411610b04576040517f08c379a0000000000000000000000000000000000000000000000000000000008152600401610afb906141ba565b60405180910390fd5b600060096002015411610b4c576040517f08c379a0000000000000000000000000000000000000000000000000000000008152600401610b439061421a565b60405180910390fd5b80600501546009600201541015610b6d576000600960020181905550610ba0565b610b868282600301548360050154600960050154612228565b600960020154610b969190614553565b6009600201819055505b60096004015481600301541015610bc05760008160030181905550610bf7565b610bdf82600960020154836003015460096004015485600601546122d8565b8160030154610bee9190614553565b81600301819055505b610c3b6040518060400160405280600d81526020017f426f73732061747461636b65640000000000000000000000000000000000000081525060096002015461237c565b610c6160405180606001604052806028815260200161485360289139826003015461237c565b7f24596b044f9390b6f54a6470706bb6795f0a3a4b6d148ca80241481a5f60938c6009600201548260030154604051610c9b929190614316565b60405180910390a15050565b6008602052806000526040600020600091509050806000015490806001018054610cd09061463d565b80601f0160208091040260200160405190810160405280929190818152602001828054610cfc9061463d565b8015610d495780601f10610d1e57610100808354040283529160200191610d49565b820191906000526020600020905b815481529060010190602001808311610d2c57829003601f168201915b505050505090806002018054610d5e9061463d565b80601f0160208091040260200160405190810160405280929190818152602001828054610d8a9061463d565b8015610dd75780601f10610dac57610100808354040283529160200191610dd7565b820191906000526020600020905b815481529060010190602001808311610dba57829003601f168201915b5050505050908060030154908060040154908060050154908060060154905087565b606060018054610e089061463d565b80601f0160208091040260200160405190810160405280929190818152602001828054610e349061463d565b8015610e815780601f10610e5657610100808354040283529160200191610e81565b820191906000526020600020905b815481529060010190602001808311610e6457829003601f168201915b5050505050905090565b610e93611e2d565b73ffffffffffffffffffffffffffffffffffffffff168273ffffffffffffffffffffffffffffffffffffffff161415610f01576040517f08c379a0000000000000000000000000000000000000000000000000000000008152600401610ef8906140ba565b60405180910390fd5b8060056000610f0e611e2d565b73ffffffffffffffffffffffffffffffffffffffff1673ffffffffffffffffffffffffffffffffffffffff16815260200190815260200160002060008473ffffffffffffffffffffffffffffffffffffffff1673ffffffffffffffffffffffffffffffffffffffff16815260200190815260200160002060006101000a81548160ff0219169083151502179055508173ffffffffffffffffffffffffffffffffffffffff16610fbb611e2d565b73ffffffffffffffffffffffffffffffffffffffff167f17307eab39ab6107e8899845ad3d59bd9653f200f220920489ca2b5937696c31836040516110009190613ee6565b60405180910390a35050565b61101d611017611e2d565b83611eee565b61105c576040517f08c379a0000000000000000000000000000000000000000000000000000000008152600401611053906141fa565b60405180910390fd5b61106884848484612418565b50505050565b60606000600860008481526020019081526020016000206040518060e0016040529081600082015481526020016001820180546110aa9061463d565b80601f01602080910402602001604051908101604052809291908181526020018280546110d69061463d565b80156111235780601f106110f857610100808354040283529160200191611123565b820191906000526020600020905b81548152906001019060200180831161110657829003601f168201915b5050505050815260200160028201805461113c9061463d565b80601f01602080910402602001604051908101604052809291908181526020018280546111689061463d565b80156111b55780601f1061118a576101008083540402835291602001916111b5565b820191906000526020600020905b81548152906001019060200180831161119857829003601f168201915b50505050508152602001600382015481526020016004820154815260200160058201548152602001600682015481525050905060006111f78260600151612474565b905060006112088360800151612474565b905060006112198460a00151612474565b9050600061122a8560c00151612474565b90506000611272866020015161123f8a612474565b88604001518888888860405160200161125e9796959493929190613d31565b604051602081830303815290604052612621565b90506000816040516020016112879190613e04565b604051602081830303815290604052905080975050505050505050919050565b6112af612cab565b60096040518060c00160405290816000820180546112cc9061463d565b80601f01602080910402602001604051908101604052809291908181526020018280546112f89061463d565b80156113455780601f1061131a57610100808354040283529160200191611345565b820191906000526020600020905b81548152906001019060200180831161132857829003601f168201915b5050505050815260200160018201805461135e9061463d565b80601f016020809104026020016040519081016040528092919081815260200182805461138a9061463d565b80156113d75780601f106113ac576101008083540402835291602001916113d7565b820191906000526020600020905b8154815290600101906020018083116113ba57829003601f168201915b50505050508152602001600282015481526020016003820154815260200160048201548152602001600582015481525050905090565b60606007805480602002602001604051908101604052809291908181526020016000905b828210156115b957838290600052602060002090600702016040518060e00160405290816000820154815260200160018201805461146e9061463d565b80601f016020809104026020016040519081016040528092919081815260200182805461149a9061463d565b80156114e75780601f106114bc576101008083540402835291602001916114e7565b820191906000526020600020905b8154815290600101906020018083116114ca57829003601f168201915b505050505081526020016002820180546115009061463d565b80601f016020809104026020016040519081016040528092919081815260200182805461152c9061463d565b80156115795780601f1061154e57610100808354040283529160200191611579565b820191906000526020600020905b81548152906001019060200180831161155c57829003601f168201915b5050505050815260200160038201548152602001600482015481526020016005820154815260200160068201548152505081526020019060010190611431565b50505050905090565b6000600560008473ffffffffffffffffffffffffffffffffffffffff1673ffffffffffffffffffffffffffffffffffffffff16815260200190815260200160002060008373ffffffffffffffffffffffffffffffffffffffff1673ffffffffffffffffffffffffffffffffffffffff16815260200190815260200160002060009054906101000a900460ff16905092915050565b61165e612ce1565b6000600f60003373ffffffffffffffffffffffffffffffffffffffff1673ffffffffffffffffffffffffffffffffffffffff168152602001908152602001600020549050600081111561182757600860008281526020019081526020016000206040518060e0016040529081600082015481526020016001820180546116e39061463d565b80601f016020809104026020016040519081016040528092919081815260200182805461170f9061463d565b801561175c5780601f106117315761010080835404028352916020019161175c565b820191906000526020600020905b81548152906001019060200180831161173f57829003601f168201915b505050505081526020016002820180546117759061463d565b80601f01602080910402602001604051908101604052809291908181526020018280546117a19061463d565b80156117ee5780601f106117c3576101008083540402835291602001916117ee565b820191906000526020600020905b8154815290600101906020018083116117d157829003601f168201915b50505050508152602001600382015481526020016004820154815260200160058201548152602001600682015481525050915050611835565b61182f612ce1565b80925050505b90565b600061184460066127df565b905061185033826127ed565b6040518060e001604052808381526020016007848154811061189b577f4e487b7100000000000000000000000000000000000000000000000000000000600052603260045260246000fd5b906000526020600020906007020160010180546118b79061463d565b80601f01602080910402602001604051908101604052809291908181526020018280546118e39061463d565b80156119305780601f1061190557610100808354040283529160200191611930565b820191906000526020600020905b81548152906001019060200180831161191357829003601f168201915b5050505050815260200160078481548110611974577f4e487b7100000000000000000000000000000000000000000000000000000000600052603260045260246000fd5b906000526020600020906007020160020180546119909061463d565b80601f01602080910402602001604051908101604052809291908181526020018280546119bc9061463d565b8015611a095780601f106119de57610100808354040283529160200191611a09565b820191906000526020600020905b8154815290600101906020018083116119ec57829003601f168201915b5050505050815260200160078481548110611a4d577f4e487b7100000000000000000000000000000000000000000000000000000000600052603260045260246000fd5b906000526020600020906007020160030154815260200160078481548110611a9e577f4e487b7100000000000000000000000000000000000000000000000000000000600052603260045260246000fd5b906000526020600020906007020160030154815260200160078481548110611aef577f4e487b7100000000000000000000000000000000000000000000000000000000600052603260045260246000fd5b906000526020600020906007020160050154815260200160078481548110611b40577f4e487b7100000000000000000000000000000000000000000000000000000000600052603260045260246000fd5b90600052602060002090600702016006015481525060086000838152602001908152602001600020600082015181600001556020820151816001019080519060200190611b8e929190612d1e565b506040820151816002019080519060200190611bab929190612d1e565b50606082015181600301556080820151816004015560a0820151816005015560c08201518160060155905050611bfa60405180606001604052806030815260200161487b60309139828461280b565b80600f60003373ffffffffffffffffffffffffffffffffffffffff1673ffffffffffffffffffffffffffffffffffffffff16815260200190815260200160002081905550611c486006611d41565b7f9ebada08c3c21c172cc2a10a368461cde692195ac0db54584007867b48b68b1b338284604051611c7b93929190613e8d565b60405180910390a15050565b600f6020528060005260406000206000915090505481565b611d3b84848484604051602401611cb99493929190613f23565b6040516020818303038152906040527f8d142cdd000000000000000000000000000000000000000000000000000000007bffffffffffffffffffffffffffffffffffffffffffffffffffffffff19166020820180517bffffffffffffffffffffffffffffffffffffffffffffffffffffffff83818316178352505050506128aa565b50505050565b6001816000016000828254019250508190555050565b60007f01ffc9a7000000000000000000000000000000000000000000000000000000007bffffffffffffffffffffffffffffffffffffffffffffffffffffffff1916827bffffffffffffffffffffffffffffffffffffffffffffffffffffffff1916149050919050565b60008073ffffffffffffffffffffffffffffffffffffffff166002600084815260200190815260200160002060009054906101000a900473ffffffffffffffffffffffffffffffffffffffff1673ffffffffffffffffffffffffffffffffffffffff1614159050919050565b600033905090565b816004600083815260200190815260200160002060006101000a81548173ffffffffffffffffffffffffffffffffffffffff021916908373ffffffffffffffffffffffffffffffffffffffff160217905550808273ffffffffffffffffffffffffffffffffffffffff16611ea8836108f8565b73ffffffffffffffffffffffffffffffffffffffff167f8c5be1e5ebec7d5bd14f71427d1e84f3dd0314c0f7b2291e5b200ac8c7c3b92560405160405180910390a45050565b6000611ef982611dc1565b611f38576040517f08c379a0000000000000000000000000000000000000000000000000000000008152600401611f2f906140da565b60405180910390fd5b6000611f43836108f8565b90508073ffffffffffffffffffffffffffffffffffffffff168473ffffffffffffffffffffffffffffffffffffffff161480611fb257508373ffffffffffffffffffffffffffffffffffffffff16611f9a846105a1565b73ffffffffffffffffffffffffffffffffffffffff16145b80611fc35750611fc281856115c2565b5b91505092915050565b8273ffffffffffffffffffffffffffffffffffffffff16611fec826108f8565b73ffffffffffffffffffffffffffffffffffffffff1614612042576040517f08c379a00000000000000000000000000000000000000000000000000000000081526004016120399061419a565b60405180910390fd5b600073ffffffffffffffffffffffffffffffffffffffff168273ffffffffffffffffffffffffffffffffffffffff1614156120b2576040517f08c379a00000000000000000000000000000000000000000000000000000000081526004016120a99061409a565b60405180910390fd5b6120bd8383836128d3565b6120c8600082611e35565b6001600360008573ffffffffffffffffffffffffffffffffffffffff1673ffffffffffffffffffffffffffffffffffffffff16815260200190815260200160002060008282546121189190614553565b925050819055506001600360008473ffffffffffffffffffffffffffffffffffffffff1673ffffffffffffffffffffffffffffffffffffffff168152602001908152602001600020600082825461216f9190614472565b92505081905550816002600083815260200190815260200160002060006101000a81548173ffffffffffffffffffffffffffffffffffffffff021916908373ffffffffffffffffffffffffffffffffffffffff160217905550808273ffffffffffffffffffffffffffffffffffffffff168473ffffffffffffffffffffffffffffffffffffffff167fddf252ad1be2c89b69c2b068fc378daa952ba7f163c4a11628f55a4df523b3ef60405160405180910390a4505050565b60008084848488604051602001612242949392919061433f565b6040516020818303038152906040528051906020012060001c9050600086600a60648461226f91906146b8565b61227991906144c8565b6122839190614472565b905060006101f482868861229791906144c8565b60028a6122a491906144c8565b6122ae91906144f9565b6122b89190614472565b6122c29190614472565b9050600081905080945050505050949350505050565b600080858484896040516020016122f2949392919061433f565b6040516020818303038152906040528051906020012060001c9050600087600a60648461231f91906146b8565b61232991906144c8565b6123339190614472565b9050600081858761234491906144c8565b60028a61235191906144c8565b61235b91906144f9565b6123659190614472565b905060008190508094505050505095945050505050565b6124148282604051602401612392929190613fec565b6040516020818303038152906040527f9710a9d0000000000000000000000000000000000000000000000000000000007bffffffffffffffffffffffffffffffffffffffffffffffffffffffff19166020820180517bffffffffffffffffffffffffffffffffffffffffffffffffffffffff83818316178352505050506128aa565b5050565b612423848484611fcc565b61242f848484846128d8565b61246e576040517f08c379a00000000000000000000000000000000000000000000000000000000081526004016124659061405a565b60405180910390fd5b50505050565b606060008214156124bc576040518060400160405280600181526020017f3000000000000000000000000000000000000000000000000000000000000000815250905061261c565b600082905060005b600082146124ee5780806124d79061466f565b915050600a826124e791906144c8565b91506124c4565b60008167ffffffffffffffff811115612530577f4e487b7100000000000000000000000000000000000000000000000000000000600052604160045260246000fd5b6040519080825280601f01601f1916602001820160405280156125625781602001600182028036833780820191505090505b5090505b600085146126155760018261257b9190614553565b9150600a8561258a91906146b8565b60306125969190614472565b60f81b8183815181106125d2577f4e487b7100000000000000000000000000000000000000000000000000000000600052603260045260246000fd5b60200101907effffffffffffffffffffffffffffffffffffffffffffffffffffffffffffff1916908160001a905350600a8561260e91906144c8565b9450612566565b8093505050505b919050565b6060600082519050600081141561264a57604051806020016040528060008152509150506127da565b6000600360028361265b9190614472565b61266591906144c8565b600461267191906144f9565b905060006020826126829190614472565b67ffffffffffffffff8111156126c1577f4e487b7100000000000000000000000000000000000000000000000000000000600052604160045260246000fd5b6040519080825280601f01601f1916602001820160405280156126f35781602001600182028036833780820191505090505b5090506000604051806060016040528060408152602001614813604091399050600181016020830160005b868110156127975760038101905062ffffff818a015116603f8160121c168401518060081b905060ff603f83600c1c1686015116810190508060081b905060ff603f8360061c1686015116810190508060081b905060ff603f831686015116810190508060e01b9050808452600484019350505061271e565b5060038606600181146127b157600281146127c1576127cc565b613d3d60f01b60028303526127cc565b603d60f81b60018303525b508484525050819450505050505b919050565b600081600001549050919050565b612807828260405180602001604052806000815250612a6f565b5050565b6128a58383836040516024016128239392919061401c565b6040516020818303038152906040527f969cdd03000000000000000000000000000000000000000000000000000000007bffffffffffffffffffffffffffffffffffffffffffffffffffffffff19166020820180517bffffffffffffffffffffffffffffffffffffffffffffffffffffffff83818316178352505050506128aa565b505050565b60008151905060006a636f6e736f6c652e6c6f679050602083016000808483855afa5050505050565b505050565b60006128f98473ffffffffffffffffffffffffffffffffffffffff16612aca565b15612a62578373ffffffffffffffffffffffffffffffffffffffff1663150b7a02612922611e2d565b8786866040518563ffffffff1660e01b81526004016129449493929190613e41565b602060405180830381600087803b15801561295e57600080fd5b505af192505050801561298f57506040513d601f19601f8201168201806040525081019061298c9190613062565b60015b612a12573d80600081146129bf576040519150601f19603f3d011682016040523d82523d6000602084013e6129c4565b606091505b50600081511415612a0a576040517f08c379a0000000000000000000000000000000000000000000000000000000008152600401612a019061405a565b60405180910390fd5b805181602001fd5b63150b7a0260e01b7bffffffffffffffffffffffffffffffffffffffffffffffffffffffff1916817bffffffffffffffffffffffffffffffffffffffffffffffffffffffff191614915050612a67565b600190505b949350505050565b612a798383612add565b612a8660008484846128d8565b612ac5576040517f08c379a0000000000000000000000000000000000000000000000000000000008152600401612abc9061405a565b60405180910390fd5b505050565b600080823b905060008111915050919050565b600073ffffffffffffffffffffffffffffffffffffffff168273ffffffffffffffffffffffffffffffffffffffff161415612b4d576040517f08c379a0000000000000000000000000000000000000000000000000000000008152600401612b449061415a565b60405180910390fd5b612b5681611dc1565b15612b96576040517f08c379a0000000000000000000000000000000000000000000000000000000008152600401612b8d9061407a565b60405180910390fd5b612ba2600083836128d3565b6001600360008473ffffffffffffffffffffffffffffffffffffffff1673ffffffffffffffffffffffffffffffffffffffff1681526020019081526020016000206000828254612bf29190614472565b92505081905550816002600083815260200190815260200160002060006101000a81548173ffffffffffffffffffffffffffffffffffffffff021916908373ffffffffffffffffffffffffffffffffffffffff160217905550808273ffffffffffffffffffffffffffffffffffffffff16600073ffffffffffffffffffffffffffffffffffffffff167fddf252ad1be2c89b69c2b068fc378daa952ba7f163c4a11628f55a4df523b3ef60405160405180910390a45050565b6040518060c001604052806060815260200160608152602001600081526020016000815260200160008152602001600081525090565b6040518060e00160405280600081526020016060815260200160608152602001600081526020016000815260200160008152602001600081525090565b828054612d2a9061463d565b90600052602060002090601f016020900481019282612d4c5760008555612d93565b82601f10612d6557805160ff1916838001178555612d93565b82800160010185558215612d93579182015b82811115612d92578251825591602001919060010190612d77565b5b509050612da09190612da4565b5090565b5b80821115612dbd576000816000905550600101612da5565b5090565b6000612dd4612dcf846143b5565b614384565b905082815260208101848484011115612dec57600080fd5b612df78482856145fb565b509392505050565b600081359050612e0e816147b6565b92915050565b600081359050612e23816147cd565b92915050565b600081359050612e38816147e4565b92915050565b600081519050612e4d816147e4565b92915050565b600082601f830112612e6457600080fd5b8135612e74848260208601612dc1565b91505092915050565b600081359050612e8c816147fb565b92915050565b600060208284031215612ea457600080fd5b6000612eb284828501612dff565b91505092915050565b60008060408385031215612ece57600080fd5b6000612edc85828601612dff565b9250506020612eed85828601612dff565b9150509250929050565b600080600060608486031215612f0c57600080fd5b6000612f1a86828701612dff565b9350506020612f2b86828701612dff565b9250506040612f3c86828701612e7d565b9150509250925092565b60008060008060808587031215612f5c57600080fd5b6000612f6a87828801612dff565b9450506020612f7b87828801612dff565b9350506040612f8c87828801612e7d565b925050606085013567ffffffffffffffff811115612fa957600080fd5b612fb587828801612e53565b91505092959194509250565b60008060408385031215612fd457600080fd5b6000612fe285828601612dff565b9250506020612ff385828601612e14565b9150509250929050565b6000806040838503121561301057600080fd5b600061301e85828601612dff565b925050602061302f85828601612e7d565b9150509250929050565b60006020828403121561304b57600080fd5b600061305984828501612e29565b91505092915050565b60006020828403121561307457600080fd5b600061308284828501612e3e565b91505092915050565b60006020828403121561309d57600080fd5b60006130ab84828501612e7d565b91505092915050565b60006130c08383613b3d565b905092915050565b6130d181614587565b82525050565b60006130e2826143f5565b6130ec8185614423565b9350836020820285016130fe856143e5565b8060005b8581101561313a578484038952815161311b85826130b4565b945061312683614416565b925060208a01995050600181019050613102565b50829750879550505050505092915050565b61315581614599565b82525050565b600061316682614400565b6131708185614434565b935061318081856020860161460a565b613189816147a5565b840191505092915050565b600061319f8261440b565b6131a98185614445565b93506131b981856020860161460a565b6131c2816147a5565b840191505092915050565b60006131d88261440b565b6131e28185614456565b93506131f281856020860161460a565b6131fb816147a5565b840191505092915050565b60006132118261440b565b61321b8185614467565b935061322b81856020860161460a565b80840191505092915050565b6000613244600c83614467565b91507f202d2d2d204e465420233a2000000000000000000000000000000000000000006000830152600c82019050919050565b6000613284603283614456565b91507f4552433732313a207472616e7366657220746f206e6f6e20455243373231526560008301527f63656976657220696d706c656d656e74657200000000000000000000000000006020830152604082019050919050565b60006132ea601c83614456565b91507f4552433732313a20746f6b656e20616c7265616479206d696e746564000000006000830152602082019050919050565b600061332a600e83614467565b91507f2c20226d61785f76616c7565223a0000000000000000000000000000000000006000830152600e82019050919050565b600061336a602483614456565b91507f4552433732313a207472616e7366657220746f20746865207a65726f2061646460008301527f72657373000000000000000000000000000000000000000000000000000000006020830152604082019050919050565b60006133d0601983614456565b91507f4552433732313a20617070726f766520746f2063616c6c6572000000000000006000830152602082019050919050565b6000613410602c83614456565b91507f4552433732313a206f70657261746f7220717565727920666f72206e6f6e657860008301527f697374656e7420746f6b656e00000000000000000000000000000000000000006020830152604082019050919050565b6000613476603883614456565b91507f4552433732313a20617070726f76652063616c6c6572206973206e6f74206f7760008301527f6e6572206e6f7220617070726f76656420666f7220616c6c00000000000000006020830152604082019050919050565b60006134dc602a83614456565b91507f4552433732313a2062616c616e636520717565727920666f7220746865207a6560008301527f726f2061646472657373000000000000000000000000000000000000000000006020830152604082019050919050565b6000613542602983614456565b91507f4552433732313a206f776e657220717565727920666f72206e6f6e657869737460008301527f656e7420746f6b656e00000000000000000000000000000000000000000000006020830152604082019050919050565b60006135a8600483614467565b91507f7d205d7d000000000000000000000000000000000000000000000000000000006000830152600482019050919050565b60006135e8602083614456565b91507f4552433732313a206d696e7420746f20746865207a65726f20616464726573736000830152602082019050919050565b6000613628602c83614456565b91507f4552433732313a20617070726f76656420717565727920666f72206e6f6e657860008301527f697374656e7420746f6b656e00000000000000000000000000000000000000006020830152604082019050919050565b600061368e602983614456565b91507f4552433732313a207472616e73666572206f6620746f6b656e2074686174206960008301527f73206e6f74206f776e00000000000000000000000000000000000000000000006020830152604082019050919050565b60006136f4600a83614467565b91507f7b226e616d65223a2022000000000000000000000000000000000000000000006000830152600a82019050919050565b6000613734602983614456565b91507f4572726f723a20436861726163746572206e65656473206d6f7265204850207460008301527f6f2061747461636b2100000000000000000000000000000000000000000000006020830152604082019050919050565b600061379a602183614456565b91507f4552433732313a20617070726f76616c20746f2063757272656e74206f776e6560008301527f72000000000000000000000000000000000000000000000000000000000000006020830152604082019050919050565b6000613800605583614467565b91507f222c20226465736372697074696f6e223a20225468697320697320616e204e4660008301527f542074686174206c6574732070656f706c6520706c6179204d657461736c617960208301527f6572204475616c21222c2022696d616765223a202200000000000000000000006040830152605582019050919050565b600061388c601d83614467565b91507f646174613a6170706c69636174696f6e2f6a736f6e3b6261736536342c0000006000830152601d82019050919050565b60006138cc603583614467565b91507f7d2c207b202274726169745f74797065223a20225370656369616c204174746160008301527f636b2044616d616765222c202276616c7565223a2000000000000000000000006020830152603582019050919050565b6000613932600083614467565b9150600082019050919050565b600061394c603183614456565b91507f4552433732313a207472616e736665722063616c6c6572206973206e6f74206f60008301527f776e6572206e6f7220617070726f7665640000000000000000000000000000006020830152604082019050919050565b60006139b2603d83614467565b91507f222c202261747472696275746573223a205b207b202274726169745f7479706560008301527f223a20224865616c746820506f696e7473222c202276616c7565223a200000006020830152603d82019050919050565b6000613a18602d83614467565b91507f7d2c207b202274726169745f74797065223a202241747461636b2044616d616760008301527f65222c202276616c7565223a20000000000000000000000000000000000000006020830152602d82019050919050565b6000613a7e602683614467565b91507f7d2c207b2274726169745f74797065223a2022446566656e7365222c2022766160008301527f6c7565223a2000000000000000000000000000000000000000000000000000006020830152602682019050919050565b6000613ae4602683614456565b91507f4572726f723a2056696c6c616e206e65656473206d6f726520485020746f206160008301527f747461636b2100000000000000000000000000000000000000000000000000006020830152604082019050919050565b600060e083016000830151613b556000860182613d13565b5060208301518482036020860152613b6d8282613194565b91505060408301518482036040860152613b878282613194565b9150506060830151613b9c6060860182613d13565b506080830151613baf6080860182613d13565b5060a0830151613bc260a0860182613d13565b5060c0830151613bd560c0860182613d13565b508091505092915050565b600060e083016000830151613bf86000860182613d13565b5060208301518482036020860152613c108282613194565b91505060408301518482036040860152613c2a8282613194565b9150506060830151613c3f6060860182613d13565b506080830151613c526080860182613d13565b5060a0830151613c6560a0860182613d13565b5060c0830151613c7860c0860182613d13565b508091505092915050565b600060c0830160008301518482036000860152613ca08282613194565b91505060208301518482036020860152613cba8282613194565b9150506040830151613ccf6040860182613d13565b506060830151613ce26060860182613d13565b506080830151613cf56080860182613d13565b5060a0830151613d0860a0860182613d13565b508091505092915050565b613d1c816145f1565b82525050565b613d2b816145f1565b82525050565b6000613d3c826136e7565b9150613d48828a613206565b9150613d5382613237565b9150613d5f8289613206565b9150613d6a826137f3565b9150613d768288613206565b9150613d81826139a5565b9150613d8d8287613206565b9150613d988261331d565b9150613da48286613206565b9150613daf82613a0b565b9150613dbb8285613206565b9150613dc682613a71565b9150613dd28284613206565b9150613ddd826138bf565b9150613de882613925565b9150613df38261359b565b915081905098975050505050505050565b6000613e0f8261387f565b9150613e1b8284613206565b915081905092915050565b6000602082019050613e3b60008301846130c8565b92915050565b6000608082019050613e5660008301876130c8565b613e6360208301866130c8565b613e706040830185613d22565b8181036060830152613e82818461315b565b905095945050505050565b6000606082019050613ea260008301866130c8565b613eaf6020830185613d22565b613ebc6040830184613d22565b949350505050565b60006020820190508181036000830152613ede81846130d7565b905092915050565b6000602082019050613efb600083018461314c565b92915050565b60006020820190508181036000830152613f1b81846131cd565b905092915050565b60006080820190508181036000830152613f3d81876131cd565b90508181036020830152613f5181866131cd565b9050613f606040830185613d22565b8181036060830152613f7281846131cd565b905095945050505050565b600060c0820190508181036000830152613f9781896131cd565b90508181036020830152613fab81886131cd565b9050613fba6040830187613d22565b613fc76060830186613d22565b613fd46080830185613d22565b613fe160a0830184613d22565b979650505050505050565b6000604082019050818103600083015261400681856131cd565b90506140156020830184613d22565b9392505050565b6000606082019050818103600083015261403681866131cd565b90506140456020830185613d22565b6140526040830184613d22565b949350505050565b6000602082019050818103600083015261407381613277565b9050919050565b60006020820190508181036000830152614093816132dd565b9050919050565b600060208201905081810360008301526140b38161335d565b9050919050565b600060208201905081810360008301526140d3816133c3565b9050919050565b600060208201905081810360008301526140f381613403565b9050919050565b6000602082019050818103600083015261411381613469565b9050919050565b60006020820190508181036000830152614133816134cf565b9050919050565b6000602082019050818103600083015261415381613535565b9050919050565b60006020820190508181036000830152614173816135db565b9050919050565b600060208201905081810360008301526141938161361b565b9050919050565b600060208201905081810360008301526141b381613681565b9050919050565b600060208201905081810360008301526141d381613727565b9050919050565b600060208201905081810360008301526141f38161378d565b9050919050565b600060208201905081810360008301526142138161393f565b9050919050565b6000602082019050818103600083015261423381613ad7565b9050919050565b600060208201905081810360008301526142548184613be0565b905092915050565b600060208201905081810360008301526142768184613c83565b905092915050565b60006020820190506142936000830184613d22565b92915050565b600060e0820190506142ae600083018a613d22565b81810360208301526142c081896131cd565b905081810360408301526142d481886131cd565b90506142e36060830187613d22565b6142f06080830186613d22565b6142fd60a0830185613d22565b61430a60c0830184613d22565b98975050505050505050565b600060408201905061432b6000830185613d22565b6143386020830184613d22565b9392505050565b60006080820190506143546000830187613d22565b6143616020830186613d22565b61436e6040830185613d22565b61437b6060830184613d22565b95945050505050565b6000604051905081810181811067ffffffffffffffff821117156143ab576143aa614776565b5b8060405250919050565b600067ffffffffffffffff8211156143d0576143cf614776565b5b601f19601f8301169050602081019050919050565b6000819050602082019050919050565b600081519050919050565b600081519050919050565b600081519050919050565b6000602082019050919050565b600082825260208201905092915050565b600082825260208201905092915050565b600082825260208201905092915050565b600082825260208201905092915050565b600081905092915050565b600061447d826145f1565b9150614488836145f1565b9250827fffffffffffffffffffffffffffffffffffffffffffffffffffffffffffffffff038211156144bd576144bc6146e9565b5b828201905092915050565b60006144d3826145f1565b91506144de836145f1565b9250826144ee576144ed614718565b5b828204905092915050565b6000614504826145f1565b915061450f836145f1565b9250817fffffffffffffffffffffffffffffffffffffffffffffffffffffffffffffffff0483118215151615614548576145476146e9565b5b828202905092915050565b600061455e826145f1565b9150614569836145f1565b92508282101561457c5761457b6146e9565b5b828203905092915050565b6000614592826145d1565b9050919050565b60008115159050919050565b60007fffffffff0000000000000000000000000000000000000000000000000000000082169050919050565b600073ffffffffffffffffffffffffffffffffffffffff82169050919050565b6000819050919050565b82818337600083830152505050565b60005b8381101561462857808201518184015260208101905061460d565b83811115614637576000848401525b50505050565b6000600282049050600182168061465557607f821691505b6020821081141561466957614668614747565b5b50919050565b600061467a826145f1565b91507fffffffffffffffffffffffffffffffffffffffffffffffffffffffffffffffff8214156146ad576146ac6146e9565b5b600182019050919050565b60006146c3826145f1565b91506146ce836145f1565b9250826146de576146dd614718565b5b828206905092915050565b7f4e487b7100000000000000000000000000000000000000000000000000000000600052601160045260246000fd5b7f4e487b7100000000000000000000000000000000000000000000000000000000600052601260045260246000fd5b7f4e487b7100000000000000000000000000000000000000000000000000000000600052602260045260246000fd5b7f4e487b7100000000000000000000000000000000000000000000000000000000600052604160045260246000fd5b6000601f19601f8301169050919050565b6147bf81614587565b81146147ca57600080fd5b50565b6147d681614599565b81146147e157600080fd5b50565b6147ed816145a5565b81146147f857600080fd5b50565b614804816145f1565b811461480f57600080fd5b5056fe4142434445464748494a4b4c4d4e4f505152535455565758595a6162636465666768696a6b6c6d6e6f707172737475767778797a303132333435363738392b2f426f73732061747461636b656420706c617965722e204e657720706c617965722068703a2025730a4d696e746564204e4654207769746820746f6b656e496420257320616e6420636861726163746572496e646578202573a26469706673582212208c94ba0bc1008d51fdce644c8a8d0a1d5bb9bd8e881777c4ea21515f5c52529664736f6c63430008000033446f6e6520696e697469616c697a696e672056696c6c616e202d20257320772f2048702025732c20696d67202573446f6e6520696e697469616c7a696e67202d2025732048502025732c20696d67202573",
    "linkReferences": {},
    "deployedLinkReferences": {}
}